:020000040800F2
:1000000048320020D12A0008D92A0008DB2A00083B
:10001000DD2A0008DF2A0008E12A000800000000AD
:10002000000000000000000000000000E32A0008BB
:10003000E52A000800000000C75000082B53000804
:10004000EB2A0008EB2A0008EB2A0008EB2A00083C
:10005000EB2A0008EB2A0008EB2A0008EB2A00082C
:10006000EB2A0008EB2A0008EB2A0008EB2A00081C
:10007000EB2A0008EB2A0008EB2A0008EB2A00080C
:10008000EB2A0008EB2A0008EB2A0008EB2A0008FC
:1000900061030008EB2A0008EB2A0008EB2A00089D
:1000A000EB2A0008EB2A0008EB2A0008EB2A0008DC
:1000B000EB2A0008770B0008EB2A0008EB2A00085F
:1000C000EB2A0008EB2A0008EB2A0008EB2A0008BC
:1000D000EB2A0008EB2A0008EB2A0008EB2A0008AC
:1000E000EB2A0008EB2A0008EB2A0008EB2A00089C
:1000F000EB2A0008EB2A0008EB2A0008EB2A00088C
:10010000EB2A0008EB2A0008EB2A0008EB2A00087B
:10011000EB2A0008EB2A0008EB2A0008EB2A00086B
:10012000EB2A0008EB2A0008EB2A0008EB2A00085B
:10013000EB2A0008EB2A0008EB2A0008EB2A00084B
:10014000EB2A0008EB2A0008EB2A0008EB2A00083B
:10015000EB2A0008EB2A0008EB2A0008EB2A00082B
:10016000EB2A0008EB2A0008EB2A0008EB2A00081B
:10017000EB2A0008EB2A0008EB2A0008EB2A00080B
:10018000EB2A0008EB2A0008DFF80CD005F030FB62
:1001900000480047C90C00084832002030BF72B642
:1001A000704762B6704780F3088870471CB500201E
:1001B000009003460122110201900D4800F0B0FEAC
:1001C0001CBD70B5044600250EE04FF48070084950
:1001D0000883642000F06EF94FF48070044948836E
:1001E000642000F067F96D1CA542EEDB70BD0000D5
:1001F0000000024000B589B00121084602F014F861
:100200000121480602F043F80020012103460222A2
:10021000CDE900104FF4C051A04800F081FE092242
:100220000B219E4800F05CFE09220C219B4800F047
:1002300057FE00208DF81E008DF81F008DF820005D
:100240008DF821008DF822008DF823008DF81A001A
:100250008DF81B0008208DF81C0003208DF81D0070
:10026000ADF8180006A98E4801F04BF800208DF873
:1002700012008DF8130001208DF8140040F68A104A
:10028000ADF808004FF42A60ADF80A0040F2FF70A4
:10029000ADF80C004FF47840ADF80E0001208DF859
:1002A00015000020ADF8100002A801F0B4F80120FC
:1002B0008DF8120000208DF8130001208DF8140035
:1002C0000820ADF808000020ADF80A0040F2FF70E9
:1002D000ADF80C004FF47840ADF80E0001208DF819
:1002E00015000020ADF8100002A801F094F80323D7
:1002F00014220121084600F065FD01220221684810
:1003000001F088FB09B000BD10B586B00446654811
:10031000029000208DF80D0004208DF80C00A07ACA
:100320008DF80E00E07A8DF80F00217B8DF810100B
:10033000617B8DF81110A17B8DF81210E17B8DF897
:100340001310217C8DF81410617C8DF81510A17CA0
:100350008DF8161001A9524801F04CF906B010BDF5
:1003600000B585B002214E4801F0BCFB002866D0E4
:1003700002214B4801F051FC6A460021484801F037
:100380002EFA9DF80800042859D19DF8090000288C
:1003900055D10198B0F5803F4CD04349084400281E
:1003A0004CD19DF80B00422813D19DF80C00422837
:1003B0000FD19DF80D0047280BD101203B49087053
:1003C00048709DF80E0000EBD0714910374AD1708B
:1003D0002FE09DF80B00412819D19DF80C005328FF
:1003E00015D19DF80D004B2811D16846FFF78CFF01
:1003F00001202E490870022048700120C8709DF825
:100400000E0000EBD0714910284A917011E09DF860
:100410000B0053280DD19DF80C00532809D19DF8ED
:100420000D00542805D16846FFF76EFF00201F49D4
:10043000087003E06846FFF767FF00BF00BF05B024
:1004400000BD00B585B017482030019000208DF820
:10045000090004208DF808008DF80A00002004E04F
:1004600000220DF10B010A54401C9DF80A10814234
:10047000F6DC06208DF80B0044218DF80C100C489A
:10048000017E8DF80D10008B010A8DF80E10694663
:10049000034801F0AFF805B000BD000000000240C5
:1004A0000064004014131405ACBECEFE0000002012
:1004B0006802002010B5002107E04AF2104200BF98
:1004C000131EA2F10102FBD1491C8142F5D310BDDC
:1004D00010B5002106E0282200BF131EA2F1010280
:1004E000FBD1491C8142F6D310BD00BF011EA0F113
:1004F000010290B2FAD1704770B52DED028B04461F
:100500000025608800EE100AB8EE400AB0EE408A7E
:10051000608800EE100AB8EE400AF0EE408A002033
:100520002EE0A11C31F810100D44A11C31F8101060
:1005300000EE101AB8EE400AB4EEC80AF1EE10FA56
:1005400008DDA11C31F8101000EE101AB8EE400AB8
:10055000B0EE408AA11C31F8101000EE101AB8EE6F
:10056000400AB4EEE80AF1EE10FA08D2A11C31F804
:10057000101000EE101AB8EE400AF0EE408A401C4F
:1005800021788142CDDC00EE105AB8EEC00A30EE80
:10059000480A70EE680A2078801E00EE100AB8EE55
:1005A000C00A80EE801A11EE106A304605F08EF80F
:1005B00041EC100BBDEC028B70BD10B59248FFF7FB
:1005C0009BFF924880ED040B9FED910B80ED0A0B91
:1005D0009FED910B80ED000B9FED910B80ED020BD9
:1005E0009FED8B0B80ED120B9FED890B80ED160BB1
:1005F0008D48FFF781FF8D4880ED040B9FED840B44
:1006000080ED0A0B9FED840B80ED000B9FED840BBA
:1006100080ED020B9FED7E0B80ED120B9FED7C0BAE
:1006200080ED160B10BD10B52DED088B0446B0EE15
:10063000408AF0EE608A94ED042BB0EE420AF0EEB0
:10064000620A94ED122BB0EE421AF0EE621A53ECED
:10065000102B51EC110B04F058FF41EC100B84ED02
:10066000060B94ED002BB0EE420AF0EE620A94ED18
:100670000A2BB0EE421AF0EE621A53EC102B51EC3A
:10068000110B04F09BFE41EC100B84ED0C0B94ED70
:10069000022BB0EE420AF0EE620A94ED0C2BB0EEA3
:1006A000421AF0EE621A53EC102B51EC110B04F0CD
:1006B00085FE41EC190B94ED0C1BB0EE410AF0EEF7
:1006C000610A53EC192B51EC100B04F090FF41EC34
:1006D000100B84ED100B94ED062BB0EE420AF0EEF9
:1006E000620A94ED162BB0EE421AF0EE621A53EC49
:1006F000102B51EC110B04F008FF41EC1B0B53ECD9
:10070000182B04F0FFFE41EC1A0B94ED101BB0EE19
:10071000410AF0EE610A53EC102B04F0F6FE41ECB6
:10072000190B94ED061BB0EE410AF0EE610A53EC92
:10073000102B04F043FE41EC100B84ED080B94EDFC
:10074000101BB0EE410AF0EE610A53EC102B9FED46
:10075000301B51EC110B04F0D2FE41EC190B94ED5F
:100760000C1BB0EE410AF0EE610A53EC102B04F0C2
:10077000CCFE41EC100B84ED0E0B94ED0E0B84EDD2
:100780000A0B94ED080B84ED040B94ED080B84ED3B
:10079000180B94ED180BBDEC088B10BD10B52DEDAA
:1007A000028B0446224884422AD11F48FFF7A4FE48
:1007B000204880ED000B90ED001BB0EE410AF0EEFA
:1007C000610A1A48FFF72FFF1A4880ED020B90EDDF
:1007D000021BB0EE410AF0EE610A53EC102B9FEDC4
:1007E000161B51EC110B04F090FE41EC180B9FED21
:1007F000140B53EC102B04F082FE0E4AC2E90401E4
:100800000020BDEC028B10BD8800002058010020A4
:10081000000000000000F03F3BDF4F8D976E823FED
:100820000AD7A3703D0AC73FEE000020C001002098
:10083000003800404802002039855FAA1596E63F3F
:1008400013EBA6AECA25BC401CB5002000900346A1
:100850000122F02101902D4800F062FB40202B493D
:1008600008838020088320200883102008831CBD73
:1008700010B51020254948834FF4FA6004F02AFB94
:100880002020224948834FF4FA6004F023FB4020E3
:100890001E4948834FF4FA6004F01CFB80201B497A
:1008A00048834FF4FA6004F015FB102017490883C1
:1008B0004FF4FA6004F00EFB2020144908834FF433
:1008C000FA6004F007FB4020104908834FF4FA60F7
:1008D00004F000FB80200D4908834FF4FA6004F017
:1008E000F9FA10BD10200949088320200883402010
:1008F0000883802008837047102004494883202003
:10090000488340204883802048837047000002408D
:1009100010B5FFF752FE054800F028FA01200449FF
:100920004870002008700120087110BD8812002056
:10093000000000201CB500247048006840F480507E
:100940006E4908600120022100230A46CDE900100B
:1009500018216B4800F0E4FA00200221034601222E
:10096000CDE900108903674800F0DAFA0522032177
:10097000634800F0B5FA05220421614800F0B0FA9E
:1009800005220F215F4800F0ABFA5C482038006870
:1009900040F480505949203908600846006820F426
:1009A0008050086044F4006444F4007444F480749B
:1009B00044F0040444F0280444F040045248048005
:1009C0001CBD1CB500244D48001F006840F4804049
:1009D0004A49091F08600120022100230A46CDE987
:1009E00000104FF4C041464800F09AFA002002215E
:1009F00003460122CDE90010C902414800F090FAF7
:100A000005220C213E4800F06BFA05220D213C48DE
:100A100000F066FA05220E21394800F061FA3748E5
:100A20002438006840F4804034492439086008467E
:100A3000006820F48040086044F4006444F40074CA
:100A400044F4807444F0040444F0200444F040046E
:100A50002E4804801CBD024600BF108900F0020031
:100A60000028FAD0918100BF108900F00100002811
:100A7000FAD09089704770B50026002400254FF405
:100A80000041204801F008FA4FF6FF711E48FFF7B9
:100A9000E2FF04464FF6FF711B48FFF7DCFF0546F7
:100AA0004FF40041174801F0F5F9C4F30904AD1201
:100AB00045EA8416304670BD70B500260024002536
:100AC0004FF480510E4801F0E7F94FF6FF710F48DF
:100AD000FFF7C1FF04464FF6FF710C48FFF7BBFF5D
:100AE00005464FF48051064801F0D4F9C4F30904D7
:100AF000AD1245EA8416304670BD0000443802400D
:100B00000004024000000240003001400038004074
:100B100010B54948006840F002004749086040F2BB
:100B2000CF70464908605320091F088043482C387D
:100B3000008840F4807041492C3908803F481C38B7
:100B4000008820F001003D491C390880081F0088FA
:100B500040F00100091F088038482C38008840F018
:100B6000010036492C39088003231D220021012071
:100B700000F028F910BD10B530481C38008800F08E
:100B8000010000284FD000202D4908702D49087021
:100B9000002418E0FFF76FFF81B22948027800783F
:100BA000401C274B1870981C20F81210FFF784FF88
:100BB00081B2244802780078401C224B1870981C9F
:100BC00020F81210641C322CE4DB1F4800791E4907
:100BD000C978884205DA1C480079401C1A49087116
:100BE00021E0194800791849C97888421BDB16486A
:100BF0000078A8B114484078012802D1FFF721FC01
:100C00000EE01148407802280AD10F488078002869
:100C100006DDFFF716FC0C488078401E0A498870F4
:100C200001200949087105481C38008820F001009E
:100C300002491C39088010BD403802402C04004095
:100C400088000020EE0000200000002000BF0BE024
:100C5000FFF70EFE00231A461946184600F0E3FA85
:100C60004FF4FA6004F036F9F2E700BF00BF3348F2
:100C7000FFF794FD3248FFF791FD022004F02AF9B6
:100C8000F5E770B50446002500BF04F064FB04F0EE
:100C9000F9F90546002003F08CFB2A490860FFF7AC
:100CA000E7FD0A23284A0021284803F0CDFD192337
:100CB000274A0021274803F0C7FD052004F042F829
:100CC000284604F0E3F970BD10B501F067FE4FF45B
:100CD000806101F00702204B18684FF6FF031840AF
:100CE0001E4B034343EA02201B4B186000BF1C4805
:100CF000006840F003001A490860FFF7A5FDFFF700
:100D000055FAFFF705FEFFF715FEFFF75AFEFFF74E
:100D100071FAFFF7FDFE02F023F80523114A0021C6
:100D2000114803F091FD1923094A0021094803F0F5
:100D30008BFD02F03CF9002010BD000000300140A6
:100D40000038004008000020840A00206B0C0008D6
:100D5000841200204D0C00080CED00E00000FA05A4
:100D60003038024084060020830C00089FED070AFB
:100D700080ED030A9FED060A80ED000A7047B0EE91
:100D8000401AF0EE601A9FED020A704748E17A3F80
:100D9000000000004A0A52020243FE4B1A607047EC
:100DA0000146072323EA01021202FA4B1B1D1868B1
:100DB0004FF6FF031840F84B18431043F54B1B1D2B
:100DC000186070472DE9F0410746884614461D46D5
:100DD0002846FFF7E5FFC5F1040007FA00F60F20EB
:100DE000284100EA0800064306F00F06E21704EB6C
:100DF000D2625211920002F1E022D2F80021214683
:100E0000E31704EBD3635B11A4EB431C012303FA48
:100E10000CF31A432046E31704EBD3635B119B00EA
:100E200003F1E023C3F80021DC48005D40EA06102E
:100E3000DA490855BDE8F081F0B503460846CD17FC
:100E400001EB9575AD10A1EB8505AD062C0ED448D0
:100E5000006840F48040D24D2860CD1701EB9575B5
:100E6000AE10D04D55F826500F26A640B543084683
:100E7000CE1701EB9676B710CA4E46F82750CD171D
:100E800001EB9575AE10C74D55F8265003FA04F6E0
:100E90003543CE1701EB9676B710C24E46F8275071
:100EA000C148006801258D402843BF4D286002F0ED
:100EB000010040B1BC480C30006801258D4028433A
:100EC000B94D0C35286002F0020040B1B648083038
:100ED000006801258D402843B34D08352860F0BDDA
:100EE00030B5CC1000F1200353F824304C07E50E48
:100EF0000F24AC40A343CD1000F1200444F825306A
:100F0000CC1000F1200353F824304C07E40E02FA11
:100F100004F42343CD1000F1200444F8253030BD03
:100F20002DE9F0470C46DDE90867002100258C46D5
:100F300000BF60E04FF0010808FA01F504EA050C73
:100F4000AC4557D1D0F800804FEA410A4FF0030971
:100F500009FA0AF928EA0908C0F80080D0F80080E8
:100F60004FEA410902FA09F948EA0908C0F8008085
:100F7000012A01D0022A27D1D0F808804FEA410A7D
:100F80004FF0030909FA0AF928EA0908C0F80880AD
:100F9000D0F808804FEA410906FA09F948EA090839
:100FA000C0F80880D0F804904FF0010808FA01F862
:100FB00029EA0809C0F80490D0F8048003FA01F97E
:100FC00048EA0908C0F80480D0F80C804FEA410ACA
:100FD0004FF0030909FA0AF928EA0908C0F80C8059
:100FE000D0F80C804FEA410907FA09F948EA0908E4
:100FF000C0F80C80491C10299CD3BDE8F08710B5BF
:1010000064480830006840F0040062490831086014
:101010006348001F006840F080506149091F086064
:101020006248406840F48070604948600846006843
:1010300040F0040008600846006840F002000860C4
:10104000FFF7ACF810BD5448001D5249091D086057
:101050007047F0B504460D4600210020504E443E36
:10106000366846F480364E4F443F3E6001E04E1CE9
:10107000B1B24B4E443E366806F400361EB941F616
:10108000FF76B142F3DB41F6FF76B14201D1012098
:1010900063E0434E361F366846F08056404F3F1F90
:1010A0003E60424E366846F44046404F3E603C4EFD
:1010B0003C3E366846F41446394F3C3F3E60384E5D
:1010C000443E366826F08076354F443F3E6045EA20
:1010D00084160127C7EB520746EA074646EA03662D
:1010E00046F480062E4F403F3E603E1F366846F075
:1010F00080763F1F3E6000BF294E443E366806F0B2
:101100000076002EF8D02A4E366846F48076284FB6
:101110003E603E46366846F400763E603E4636689F
:1011200046F480663E603E46366846F005063E6000
:101130001B4E3C3E366826F00306194F3C3F3E608E
:101140003E46366846F002063E6000BF144E3C3E06
:10115000366806F00C06082EF8D1F0BDF0B504464E
:101160000D4616461F460E484438006840F0010000
:101170000B4944390860002009493C390860084897
:10118000443800680B4908400549443908600A485A
:10119000091D13E008ED00E00000FA0500E400E09E
:1011A0004438024008380140003C014000700040D3
:1011B000003C0240FFFFF6FE103000240860081FCC
:1011C000006820F48020091F08600020064908609C
:1011D0003B46324629462046FFF73BFF00210846A2
:1011E000FFF7D8FDF0BD00000C38024030B50246D4
:1011F0000B464FF6FF70002112E0555C684000245A
:101200000AE000F0010525B14AF2010585EA600017
:1012100000E04010651CECB2082CF2DB4D1CE9B27A
:101220009942EADB30BD2DE9FE4305460E461746DE
:101230009846280A8DF80100E8B28DF80000300ABF
:101240008DF80300F0B28DF80200380A8DF8050021
:10125000F8B28DF804004FEA18208DF8070008F066
:10126000FF008DF8060008216846FFF7BFFF04461F
:101270002046E11704EB11610912A4EB0121C9B268
:101280008DF80810E11704EB1161090A8DF80910B7
:101290000D480078B0B94FF0000910E01DF80910B2
:1012A0000A4801F000FA00BF8021084801F0ABFABB
:1012B0000028F9D001200449087009F10109B9F1A9
:1012C0000A0FEBDBBDE8FE830C000020001001409C
:1012D00010B50446FE48844209D10121480601F0B8
:1012E0003EF800214FF0007001F039F808E00121CC
:1012F000880601F034F800214FF0806001F02FF8EB
:1013000010BD30B5024600200023146824F002040A
:101310001460146844F00104146000E05B1C54681D
:1013200004F001041CB94FF6FF74A342F6D15468CF
:1013300004F001040CB900206CE08C79012C04D17C
:10134000146844F08004146003E0146824F08004FE
:101350001460CC79012C04D1146844F0400414606A
:1013600003E0146824F0400414600C7A012C04D1CA
:10137000146844F02004146003E0146824F020048E
:1013800014604C7A012C04D1146844F010041460E9
:1013900003E0146824F0100414608C7A012C04D14A
:1013A000146844F00804146003E0146824F008048E
:1013B0001460CC7A012C04D1146844F00404146045
:1013C00003E0146824F0040414608C78A407CD783A
:1013D00044EA05640D7944EA05444D7944EA05542C
:1013E0000D886D1E2C43D461146824F00104146030
:1013F000002300E05B1C546804F001041CB14FF6AC
:10140000FF74A342F6D1546804F001040CB100202B
:1014100000E0012030BD10B50021837A012202FADC
:1014200003F1AC4A126842F00102AA4B1A60A94AC1
:101430001C3212688A43A74B1C331A60027BCAB95C
:10144000A44A0C3212688A43A24B0C331A604288B9
:10145000C38842EA03439F4A4032847A42F83430D8
:101460000288838842EA03439A4A4032847A02EB34
:10147000C4025360027B012A19D1964A0C321268C9
:101480000A43944B0C331A604288038842EA0343B0
:10149000904A4032847A42F83430C288838842EAE3
:1014A00003438C4A4032847A02EBC4025360C27A0E
:1014B0003AB9884A121D12688A43864B1B1D1A606E
:1014C00006E0844A121D12680A43824B1B1D1A60F3
:1014D000028932B97F4A143212688A437D4B143331
:1014E0001A600289012A06D17A4A143212680A4324
:1014F000784B14331A60427B012A06D1754A1C329C
:1015000012680A43734B1C331A60724A126822F045
:101510000102704B1A6010BD00218171C17101720E
:1015200041728172C1728170C17003210171022107
:1015300041710121018070476649096841F001014C
:10154000644A11601146096843F60E729143614A7C
:1015500011601146096841EA0021116011460968CD
:1015600021F001011160704721B1026842F480321C
:10157000026003E0026822F4803202607047E1B149
:10158000026842F0800202604FF4C272125842F4C4
:1015900080734FF4C27213504FF4CA72125842F45F
:1015A00080734FF4CA7213504FF4D272125842F43F
:1015B00080734FF4D27213501BE0026822F0800255
:1015C00002604FF4C272125822F480734FF4C27258
:1015D00013504FF4CA72125822F480734FF4CA7237
:1015E00013504FF4D272125822F480734FF4D27217
:1015F0001350704710B502460020936803F08063D3
:10160000B3F1806F00D110E0936803F00063B3F191
:10161000006F01D1012008E0936803F08053B3F11B
:10162000805F01D1022000E00420042879D002F577
:10163000C07303EB00131B6803F0010402F5C073D1
:1016400003EB00131C600B7A7BB94B7A0C8843EADE
:10165000445302F5C07404EB00142468234302F5DC
:10166000C07404EB0014236010E00B7A4C6843EA6A
:10167000C4034C7A234302F5C07404EB00142468BD
:10168000234302F5C07404EB001423608B7A03F04B
:101690000F038B7202F5C07303EB00135B6823F03A
:1016A0000F0402F5C07303EB00135C6002F5C07316
:1016B00003EB00135B688C7A234302F5C07404EBE0
:1016C000001463608B7B1C064B7B44EA034403E0FD
:1016D00000640040006600400B7B44EA0323CC7AA0
:1016E000234302F5C07404EB0014A3608B7C1C063A
:1016F0004B7C44EA03440B7C44EA0323CC7B234326
:1017000002F5C07404EB0014E36002F5C07303EB50
:1017100000131B6843F0010402F5C07303EB0013D0
:101720001C6010BD10B50246002321B1012907D06D
:1017300002290FD109E09068F94C00EA04030BE09C
:101740009068F84C00EA040306E09068F64C00EA62
:10175000040301E0002300BF00BFF44C181BA342A8
:1017600016D007DC83B16FF08060184470B1022896
:1017700018D111E0B0F5007F10D0ED4C204448B1F5
:10178000B0F5003F0ED10BE002230DE000230BE08B
:10179000002309E0002307E0012305E0012303E023
:1017A000012301E0002300BF00BFD8B210BD21B16A
:1017B000012907D002290FD109E0826842F0800296
:1017C00082600AE0826842F40042826005E082683A
:1017D00042F40002826000E000BF00BF704710B515
:1017E00000F5D87303EB01131B6803F004031372B5
:1017F000137A53B900F5D87303EB01131B6840F259
:10180000FF7404EA5353136009E000F5D87303EB47
:1018100001131B686FF0604404EAD303536000F5C2
:10182000D87303EB01131B6803F00203537200F536
:10183000D87303EB01135B6803F00F03937200F599
:10184000D87303EB01135B681B0AD37400F5D873DC
:1018500003EB01139B68D37200F5D87303EB0113FC
:101860009B681C0A147300F5D87303EB01139B6883
:101870001C0C547300F5D87303EB01139B681B0E0B
:10188000937300F5D87303EB0113DB68D37300F592
:10189000D87303EB0113DB681C0A147400F5D873CA
:1018A00003EB0113DB681C0C547400F5D87303EBD5
:1018B0000113DB681B0E937421B9C36843F0200346
:1018C000C36003E0036943F02003036110BD21B945
:1018D000C26842F02002C26003E0026942F02002C6
:1018E000026170470246002019B9D36803F0030073
:1018F00006E0012903D1136903F0030000E0002092
:10190000704710B502460B4600204FF6FF71BBB979
:10191000146824F0020444F00104146000E0491E3D
:10192000546804F00304012C01D00029F7D1546855
:1019300004F00304012C01D0002032E0012030E04B
:10194000012B13D1146824F00304146000E0491E35
:10195000546804F003040CB10029F8D1546804F071
:1019600003040CB100201CE001201AE0022B17D167
:10197000146824F0010444F00204146000E0491EDD
:10198000546804F00304022C01D00029F7D15468F4
:1019900004F00304022C01D0002002E0012000E04A
:1019A000002010BD014600200A6822F0010242F02A
:1019B00002020A604A6802F00302022A00D10120F2
:1019C000704701464FF6FF7200200B6823F00203B8
:1019D0000B6000E0521E4B6803F00203022B01D1A2
:1019E000002AF7D14B6803F00203022B00D001203C
:1019F0007047014600208A6902F070007047014676
:101A000000208A69100E7047014600208A69C2F3DF
:101A1000074070471AB143690B43436102E04369D1
:101A20008B434361704710B50246002001F47003F8
:101A300043B19369C1F3130423400BB101202DE09E
:101A400000202BE001F0807343B15368C1F313040D
:101A500023400BB1012021E000201FE001F00063D2
:101A600043B19368C1F3130423400BB1012015E087
:101A7000002013E001F0007343B1D368C1F31304F5
:101A800023400BB1012009E0002007E01369C1F3F6
:101A9000130423400BB1012000E0002010BD002200
:101AA000244B994202D10023836111E0C1F3130258
:101AB00001F000730BB1C2600AE001F080630BB16A
:101AC000026105E001F000630BB1826000E042605A
:101AD00070470246002002EA01030BB1012000E03A
:101AE0000020704770B504460D4600266069284006
:101AF000002872D0B5F5807F69D01DDC082D42D05A
:101B000006DC012D2DD0022D31D0042D7FD134E003
:101B1000102D3ED0202D42D0402D78D145E0000040
:101B20000300000400030008000003100001000887
:101B30000001FFF77000F030B5F5004F61D009DC0F
:101B4000B5F5007F4AD0B5F5806F4DD0B5F5006F83
:101B50005DD150E0B5F5803F2DD0B5F5003F56D1B1
:101B60002FE0A0685549FFF7B4FF064651E0E06852
:101B70000321FFF7AEFF06464BE0E0680821FFF7C0
:101B8000A8FF064645E0E0681021FFF7A2FF0646E1
:101B90003FE020690321FFF79CFF064639E02069FA
:101BA0000821FFF796FF064633E020691021FFF772
:101BB00090FF06462DE060680821FFF78AFF064681
:101BC00027E060681021FFF784FF064621E0A06946
:101BD0000121FFF77EFF06461BE01BE0A069022102
:101BE000FFF777FF064614E0A0690421FFF771FFB5
:101BF00006460EE00BE0A0697021FFF76AFF06467B
:101C000007E060680421FFF764FF064601E0002654
:101C100000BF00E00026304670BDB1F5007F3AD02D
:101C20000FDC202928D006DC01291CD004291DD076
:101C3000082940D11DE0402921D0B1F5807F3AD15B
:101C400026E0B1F5004F31D006DCB1F5806F25D02C
:101C5000B1F5006F2FD124E0B1F5803F12D0B1F57E
:101C6000003F28D111E0154A826025E00822C260B9
:101C700022E01022C2601FE0082202611CE0102254
:101C8000026119E00822426016E01022426013E06F
:101C90000422426010E0042242600DE0042242600F
:101CA0000AE0002282610422426005E00022826193
:101CB0000422426000E000BF00BF70470101010044
:101CC00010B504468C48844208D10121084600F032
:101CD00000FB0021012000F0FCFA5EE0874884420E
:101CE00008D10121022000F0F4FA0021022000F0C6
:101CF000F0FA52E08248844208D10121042000F029
:101D0000E8FA0021042000F0E4FA46E07D4884422D
:101D100008D10121082000F0DCFA0021082000F0A1
:101D2000D8FA3AE07848844208D10121102000F026
:101D3000D0FA0021102000F0CCFA2EE07348844243
:101D400008D10121202000F0C4FA0021202000F059
:101D5000C0FA22E06E48844208D10121402000F000
:101D6000B8FA0021402000F0B4FA16E06948844235
:101D700008D10121802000F0ACFA0021802000F081
:101D8000A8FA0AE06448844207D10121801500F0D6
:101D9000A0FA0021A01500F09CFA10BDF0B50A468B
:101DA00000210023002400BF3DE0012505FA01F3D6
:101DB000156805EA03049C4234D105684F000326E8
:101DC000BE40B543056015794E00B5400668354301
:101DD00005601579012D02D01579022D16D185687F
:101DE0004F000326BE40B543856055794E00B5408F
:101DF000866835438560456801268E40B543456059
:101E0000456896798E40B6B235434560C5684F0047
:101E10000326BE40B543C560D5794E00B540C668BF
:101E20003543C560491C1029BFD3F0BD4FF6FF7183
:101E300001600021017141718171C171704708B564
:101E40004FF480320092009A0A430092009AC261D5
:101E5000C161009AC261C2690092C269009208BD64
:101E60000246002013690B400BB1012000E0002066
:101E700070470146086980B27047024600205369E6
:101E80000B400BB1012000E000207047014648697B
:101E900080B2704701837047418370470AB1018364
:101EA00000E0418370474161704742694A404261A6
:101EB0007047F0B5002300244D07ED0E02FA05F33C
:101EC000CE1000F1200555F826504E07F70E0F26CC
:101ED000BE40B543CF1000F1200646F82750CE1083
:101EE00000F1200555F8265045EA0304CE1000F114
:101EF000200545F82640F0BD0000024000040240E5
:101F000000080240000C0240001002400014024091
:101F100000180240001C024000200240FA480068FD
:101F200040F00100F84908600020F74908310860D6
:101F3000F5480068F5490840F3490860F448091D70
:101F40000860081F006820F48020091F0860002036
:101F5000ED490C31086070470021EB4A921C11706A
:101F600011460870704710B501460022002300207A
:101F70004A11012A02D1E44C236808E0022A03D165
:101F8000E14C7034236802E0DF4C7434236801F0C4
:101F90001F02012494401C400CB1012000E00020ED
:101FA00010BD38B5002000900024002500BF31206E
:101FB000FFF7D9FF05460098401C00900098B0F547
:101FC000A06F01D0002DF2D03120FFF7CCFF08B177
:101FD000012400E00024204638BD01460020CA4A02
:101FE000106820F0F80040EAC10010607047C9494D
:101FF000086070470021C44A7032117011700128C6
:1020000002D004280AD104E00121BF4A70321170C5
:1020100005E00521BC4A7032117000E000BF00BF2E
:102020007047BD490860704770B5049C41EA82154D
:102030000126C6EB530645EA0645054345EA046515
:10204000B14E361D356070BDB249086670478201D9
:1020500042EA0172AC4B84331A607047AD4988661E
:102060007047AC49C864704702460020A64B08334D
:10207000186820F0EC6042EA01031843A24B0833D1
:1020800018607047024600209F4B0833186820F004
:10209000784042EA010318439B4B083318607047AD
:1020A00001460020984A0832106820F003000843D7
:1020B0001060704794480830006800F00C007047CA
:1020C00001460020904A0832106820F0F0000843D2
:1020D00010607047014600208B4A0832106820F4D7
:1020E000E05008431060704701460020864A0832DD
:1020F000106820F4604040EAC10010607047F0B5FD
:102100000021002200240225002602237E4F0837EA
:102110003F6807F00C0121B1042905D0082937D107
:1021200005E07E4F076036E07D4F076033E0764F75
:102130003F1D3F68C7F38056734F3F1D3F6807F050
:102140003F036EB1764FB7FBF3F7DFF8BCC10CF17C
:10215000040CDCF800C0CCF3881C07FB0CF40CE08A
:102160006E4FB7FBF3F7DFF8A0C10CF1040CDCF8FD
:1021700000C0CCF3881C07FB0CF4634F3F1D3F6885
:10218000C7F301477F1C7D00B4FBF5F7076002E051
:10219000624F076000BF00BF5B4F08373F6807F022
:1021A000F00109095F4F7A5C0768D7404760564FD6
:1021B00008373F6807F4E051890A5A4F7A5C47684C
:1021C000D7408760504F08373F6807F46041490B9C
:1021D000544F7A5C4768D740C760F0BD002100F4D7
:1021E0004072B2F5407F0AD1474A0832116821F4A3
:1021F000F8114D4A02401143434A08321160424AE5
:1022000070321268C0F30B031A433F4B70331A60ED
:10221000704741494439086070473F494039086078
:10222000704742490860704739B1374A3032126806
:102230000243354B30331A6006E0334A30321268BD
:102240008243314B30331A60704739B12E4A3432F1
:10225000126802432C4B34331A6006E02A4A3432A7
:1022600012688243284B34331A60704739B1264ACA
:10227000383212680243244B38331A6006E0224A8F
:10228000383212688243204B38331A60704739B1B4
:102290001D4A4032126802431B4B40331A6006E06D
:1022A000194A403212688243174B40331A60704714
:1022B00039B1154A443212680243134B44331A6051
:1022C00006E0114A4432126882430F4B44331A60CD
:1022D000704739B10C4A1032126802430A4B10336E
:1022E0001A6006E0084A103212688243064B103327
:1022F0001A607047E1B1044A143212680243024B7B
:1023000014331A6019E0000000380240FFFFF6FEA7
:102310001030002400004742800E47420024F400A1
:1023200040787D010D000020FFFCFF0F5C0147425B
:102330005B4A126882435A4B1A60704739B1584A57
:10234000121D12680243564B1B1D1A6006E0544AC8
:10235000121D12688243524B1B1D1A60704739B11F
:102360004F4A0C32126802434D4B0C331A6006E0A0
:102370004B4A0C3212688243494B0C331A60704747
:1023800039B1474A103212680243454B10331A6084
:1023900006E0434A103212688243414B10331A6000
:1023A000704739B13E4A3C32126802433C4B3C33E1
:1023B0001A6006E03A4A3C3212688243384B3C339A
:1023C0001A60704739B1364A403212680243344BC2
:1023D00040331A6006E0324A403212688243304B82
:1023E00040331A60704739B12D4A443212680243B3
:1023F0002B4B44331A6006E0294A44321268824368
:10240000274B44331A60704739B1254A4C32126861
:102410000243234B4C331A6006E0214A4C321268C7
:1024200082431F4B4C331A60704739B11C4A5032FB
:10243000126802431A4B50331A6006E0184A5032B1
:1024400012688243164B50331A60704739B1144AF0
:10245000D21F12780243124BDB1F1A7006E0104A9B
:10246000D21F127882430E4BDB1F1A7070470C4844
:102470006030006840F08070094960310860704742
:1024800001460020064A083A12680A400AB10120B3
:1024900000E0002070470249891F08707047000063
:1024A0001438024010B50446F748844208D101218F
:1024B0001020FFF765FF00211020FFF761FF3EE0CD
:1024C000F248844209D101214804FFF748FF002166
:1024D0004FF40030FFF743FF31E0ED48844209D16B
:1024E00001218804FFF73BFF00214FF48020FFF714
:1024F00036FF24E0E748844209D10121C804FFF7F0
:102500002EFF00214FF40020FFF729FF17E0E248DB
:10251000844209D101210805FFF721FF00214FF472
:102520008010FFF71CFF0AE0DC48844207D101213C
:102530002020FFF725FF00212020FFF721FF10BDFD
:102540002DE9FF4705460E460024A14600BFA046E0
:10255000B08900B100BF2C8A24F44054F0880443B1
:102560002C82AC8941F20C608443B08831890843E5
:10257000718908430443AC81AC8A24F44074B08967
:102580000443AC826846FFF7BAFDBF48854202D0DB
:10259000C248854202D1DDF80C9001E0DDF80890D8
:1025A000A88900F4004040B109EBC90000EB091014
:1025B00031684900B0FBF1F707E009EBC90000EB17
:1025C000091031688900B0FBF1F76420B7FBF0F027
:1025D00004012009642101FB1078A88900F400405F
:1025E00040B1322000EBC800B0FBF1F000F0070072
:1025F000044308E0322000EB08106421B0FBF1F046
:1026000000F00F0004432C81BDE8FF874FF4165102
:10261000016000218180C18001810C214181002164
:102620008181704710B502460020108A20F4706046
:102630000B884C8823438C882343CC88234318433E
:10264000108210BD0021018041808180C1807047CF
:1026500021B1828942F40052828104E082894DF6E0
:10266000FF731A4082817047028B02F47F4202831B
:10267000028B0A430283704721B1828942F40042EF
:10268000828103E08289C2F30E028281704721B108
:10269000828A42F40062828204E0828A4FF2FF73EF
:1026A0001A4082827047C1F3080282807047014657
:1026B0008888C0F308007047028A4FF6F0731A400A
:1026C0000282028A0A430282704721B1828942F063
:1026D0000202828104E082894FF6FD731A408281F2
:1026E000704782894FF2FF731A40828182890A43C0
:1026F00082817047028A4FF6DF731A400282028A93
:102700000A430282704721B1028A42F48042028267
:1027100004E0028A4BF6FF731A40028270478189F7
:1027200041F001018181704721B1828A42F00802A3
:10273000828204E0828A4FF6F7731A4082827047E1
:10274000028BD2B20283028B42EA012202837047DB
:1027500021B1828A42F02002828204E0828A4FF60E
:10276000DF731A408282704721B1828A42F01002E0
:10277000828204E0828A4FF6EF731A4082827047A9
:10278000828A4FF6FB731A408282828A0A438282CF
:10279000704721B1828A42F00202828204E0828A7A
:1027A0004FF6FD731A40828270471AB1838A0B4339
:1027B000838202E0838A8B4383827047F0B50346AD
:1027C000002400260025002040F66A17B94200D1F7
:1027D00000BF1846C1F3421401F01F06012707FA93
:1027E00006F5012C01D10C3004E0022C01D110308F
:1027F00000E014301AB107682F43076002E0076851
:10280000AF430760F0BD02460020B1F5007F00D164
:1028100000BF13880B400BB1012000E0002070477F
:1028200001F40072B2F5007F00D100BFCA430280FC
:10283000704770B50246002400230025002040F6B2
:102840006A16B14200D100BFC1F3421501F01F0367
:10285000012606FA03F3012D02D19689334006E0E2
:10286000022D02D1168A334001E0968A33400C12C1
:10287000012606FA04F41688344013B10CB1012085
:1028800000E0002070BD0000001001400044004046
:1028900000480040004C004000500040001401403F
:1028A00010B50022002340F66A14A14200D100BFF7
:1028B0000A1201249440A3B2DC43048010BD00003E
:1028C0000CB50020019000907648006840F48030FC
:1028D0007449086000BF7348006800F4003000903D
:1028E0000198401C0190009818B90198B0F5A06FAC
:1028F000F1D16C48006800F4003010B10120009064
:1029000001E0002000900098012846D16548403041
:10291000006840F0805063494031086062480068B8
:1029200040F48040604908605E48083000685D49B6
:10293000083108600846006840F400400860084616
:10294000006840F4A05008605848091F0860081F3C
:10295000006840F08070091F086000BF514800689F
:1029600000F000700028F9D040F20560504908607E
:102970004C480830006820F003004A4908310860DC
:102980000846006840F00200086000BF4548083073
:10299000006800F00C000828F8D10CBD10B54548BF
:1029A000006840F47000434908603E48006840F009
:1029B00001003C49086000203A4908310860394864
:1029C00000683D490840374908603C48091D0860D7
:1029D000081F006820F48020091F0860002031498A
:1029E0000C310860FFF76CFF4FF00060314980390F
:1029F000086010BD70B500200022022300240221CF
:102A0000284D08352D6805F00C0020B1042806D0AB
:102A1000082834D107E02A4D2A4E356033E02A4D8C
:102A2000284E35602FE01F4D2D1D2D68C5F38054B5
:102A30001C4D2D1D2D6805F03F0154B1224DB5FBF5
:102A4000F1F5184E361D3668C6F3881605FB06F2FA
:102A500009E01B4DB5FBF1F5124E361D3668C6F385
:102A6000881605FB06F20F4D2D1D2D68C5F3014597
:102A70006D1C6B00B2FBF3F5124E356003E0104D98
:102A8000104E356000BF00BF064D08352D68C5F3F8
:102A900003150E4E705D0B4D2D68C540094E356017
:102AA00070BD00000038024000700040195440071B
:102AB000003C024088ED00E0FFFFF6FE10300024ED
:102AC0000024F4002000002040787D012400002034
:102AD0000648804706480047FEE7FEE7FEE7FEE7B8
:102AE000FEE7FEE7FEE7FEE7FEE7FEE79D290008BA
:102AF000890100087CB5002514E06946284602F0EB
:102B0000E1F8064666B9FD4850F8254044B1012C6D
:102B100006D0D4E9020100EB810060640198A06452
:102B2000681CC5B23F2DE8D97CBD00BF00BF02E0E4
:102B3000C82002F0CFF9F24800780028F8D0F14818
:102B400000686421B0FBF1F0EE49086008460068B7
:102B500028B90020EC490870FF2002F0F3F802F0D9
:102B600091FA0446E748006864214843E749086051
:102B7000204602F08BFA00BF02F084FA0446E348D4
:102B80000068E34908600020E0490860204602F040
:102B90007DFADF480068DB490968B0FBF1F0C0F15D
:102BA0006400D949087002F0CBFAFFF7A3FF642054
:102BB00002F090F9E0E700B587B003200021802201
:102BC000D44BCDE90132CDE903104FF6FE703E2320
:102BD000D14A0090AFF2AD0001F08DFE06AACFA160
:102BE0003E2001F0F1FF07B000BD002400BF00BF90
:102BF00002F048FA0446C5480068401CC349086012
:102C0000204602F043FA02F09AFAF1E700B587B0E5
:102C1000032000218022C54BCDE90132CDE903100C
:102C20004FF6FF703F23C24A0090AFF2410001F01F
:102C300062FE06AABFA13F2001F0C6FF07B000BD9B
:102C400004E0002200F8012B4A1E91B20029F8D1BD
:102C5000704770B54FF49671BA48FFF7F1FF002343
:102C60000FE0581C85B203EB8300B64901EB8004EA
:102C700005EB850001EB8006002020706660581C83
:102C800083B20E2BEDD303EB8300AE4901EB80043E
:102C90000020207060600846AB49086070BD70B5C8
:102CA00041F25841A948FFF7CBFF4FF48071934898
:102CB000FFF7C6FF002413E0601CC5B2C4EBC400DC
:102CC00000EB4000A14901EB8003C5EBC50000EB20
:102CD000400001EB80065E619DA0D864601CC4B218
:102CE0003D2CE9D3C4EBC40000EB4000974901EB55
:102CF00080030020586196A0D864002095490860A0
:102D000092489549086070BD0021944A11700020D6
:102D100004E00021924A1154411CC8B20828F8D39B
:102D20000021904A1170904A1170904A1160904AA7
:102D30001160704700208F4908608F4908708F49E3
:102D400008708F4908708F4908708F4908606F4973
:102D500008606F4908606B490860694908707047EE
:102D600010B502F0E7F9FFF7E5FFFFF7CDFFFFF73A
:102D700096FFFFF76EFF00F0F3FE00F0E4FF01F0B6
:102D8000DAFAFFF743FFFFF716FF02F0D5F910BD9F
:102D90007C480078012808D177480078FF2804D2C1
:102DA00075480078401C74490870704777496B4A31
:102DB0001278885C6A49095C744A515C01EBC00175
:102DC000694A1170704710B500246E4800780128D8
:102DD00030D102F057F904466748007820B16648C0
:102DE0000078401E6449087063480078F8B9634869
:102DF0000078E0B9FFF7DAFF40485B49097850F8FE
:102E000021005A4908605848007856490978884294
:102E10000DD056480068806B401C5449096888638F
:102E200059480068401C5849086002F047F920469C
:102E300002F02CF910BD10B500245248007801288A
:102E400011D102F01FF904464B48007840B94B48B5
:102E50000078FF2804D249480078401C4749087090
:102E6000204602F013F910BD10B5002402F00AF953
:102E7000044641480078F8B940480078E0B9FFF7C7
:102E800095FF1E483849097850F8210037490860F5
:102E9000354800783349097888420DD033480068B6
:102EA000806B401C31490968886337480068401CC2
:102EB0003549086002F0FDF8204602F0E7F810BD41
:102EC00010B500242F48007801286FD102F0DAF8FD
:102ED00004462948007870B92848007860B127482E
:102EE0000078401E254908700846007828B9204619
:102EF00002F0CCF84CE056E051E04CE01418002011
:102F00004C00002044000020400000205C00002015
:102F100048000020141400201016002075432F4F85
:102F2000532D494920537461740000001416002089
:102F30001018002075432F4F532D49492049646CC8
:102F400065000000981200203800002014190020AD
:102F50003F0000006C0000206400002051000020B1
:102F6000520000204F000020500000206800002088
:102F7000600000207C0000204D0000204E0000205A
:102F80005B0000205A000020340000205258000846
:102F9000FFF76AFF0AE0204602F078F806E02046D4
:102FA00002F074F802E0204602F070F810BD10B58F
:102FB000EE48007890B9FFF7F9FEED480078ED494A
:102FC0000870ED48EA49097850F82100EB4908609B
:102FD00008460068EA49086002F05BF810BD10B5C9
:102FE0000024022001F076FF02F04CF80446002095
:102FF000E4490860204602F049F8642001F06AFFC5
:1030000002F040F80446DF480068DF49086001200C
:10301000DE490870204602F039F810BD70B5002670
:1030200002F082F902F02EF80646D9480068401CEA
:10303000D7490860304602F029F8CC4800780128CA
:1030400053D1D448007820B1012804D0022809D1F6
:1030500003E001250BE0002509E001250120CD4911
:10306000087004E001250020CA49087000BF00BFB5
:1030700005B970BDC848046833E002F003F806469D
:10308000E06A50B3E06A401EE062E06A28BB94F850
:10309000300000F0370040B114F8300F00F0C800E5
:1030A000207001206070303C02E0002084F8310084
:1030B00094F8300000F0080078B93434A078B749AB
:1030C00009780843B54908702078B549085C6178EB
:1030D000084314F83419B24A50546469304601F078
:1030E000D5FF94F832003F28C7D100BFC1E74FF4A5
:1030F00092707047704710B590F8342001F10B03BF
:103100009B5C90F83540A34301F10B04A354234684
:103110009B5C23B98B7A90F83640A3438B7210BD29
:103120002DE9F04F05460F4690469946A87A9D49ED
:103130000E5C05F10B00805D11F800B00BEBC600D2
:1031400000F0FF0A8C4850F82A4000202034E0604C
:103150002760207C20EA0800207484F81190207CED
:10316000203C00F0080068B994F836008B490978D3
:1031700008438A4908708A48805D94F835100843EE
:103180008749885529462046FFF7B5FF5046BDE8D8
:10319000F08F10B57A4A1268D061794A126892F8B5
:1031A000343000F10B02D25C754B1B6893F835305C
:1031B0001A43734B1B6893F8344000F10B031A5504
:1031C000827A6F4B1B6893F836301A4382726C4ACE
:1031D000126892F83410724A525C694B1B6893F87B
:1031E00035309A436E4B5A541A46525C42B9644A7F
:1031F000126892F83630694A12789A43674B1A700F
:1032000010BD014600228A72002005E0002301F172
:103210000B021354421CD0B20828F7D3704705E0C4
:1032200011F8013B00F8013B531E9AB2002AF7D176
:1032300070470146002002E0491C421CD0B20A78C7
:10324000002AF9D170472DE9F84F05460F46904600
:103250009946DDE90AAB0020009001F013FF0090D1
:1032600051480468002C7BD0183454F8040C4E49A3
:103270000860009801F00AFF44F8187CA576002049
:1032800020766076606144F814BC44F80CAC44F8D5
:10329000108C0C9824F8080C24F8069C0020E07789
:1032A000E810207705F00700E076217F01208840B4
:1032B000A077E17E01208840607700206060E060B8
:1032C000A0602062A0626062E0622063AFF28030A2
:1032D0006063183C002606E0002104F1500040F82D
:1032E0002610701CC6B2002EF6D0204602F01BF845
:1032F00001F0C8FE0090204840F82540009801F0F9
:10330000C5FE204601F019FF01F0BCFE00902248E6
:10331000006860610020A0611F48006810B11E486D
:10332000006884611C4804603434A0781B49097823
:1033300008431A49087020781949085C61780843E5
:1033400014F83419164A505418480078401C17498C
:103350000870009801F09AFE0020BDE8F88FFFE7A2
:10336000009801F093FE4220F7E700005A00002089
:10337000500000204F00002014180020680000209A
:10338000600000205C000020440000204C00002071
:103390007C000020700000206C0000205100002004
:1033A0005200002052580008640000205B000020FA
:1033B0002DE9F05F04460F4691461E464FF0000B84
:1033C0002078052804D0012030700020BDE8F09F4F
:1033D00009F0800ABAF1000F04D029F080094FF0FB
:1033E000010801E04FF000080020307001F04AFEB3
:1033F0008346B9F1000F2CD0B9F1010F3BD0B9F1E0
:10340000020F03D0B9F1030F46D111E0208900EA81
:103410000705BD4206D1B8F1010F05D12089A843A7
:10342000208101E070203070584601F02FFE3AE014
:10343000208900EA070535B1B8F1010F05D12089CF
:10344000A843208101E070203070584601F01EFE34
:1034500029E0208927EA0005BD4206D1B8F1010F15
:1034600005D120892843208101E070203070584622
:1034700001F00CFE17E0208927EA000535B1B8F10C
:10348000010F05D120892843208101E07020307090
:10349000584601F0FBFD06E0584601F0F7FD002517
:1034A0006F20307000BF00BF28468FE72DE9F04144
:1034B00006460D460027FA48007820B110202870F3
:1034C0000020BDE8F08101F0DDFD0746F548046805
:1034D00084B100684068F3490860052020702681A7
:1034E00000206060F0A0E060384601F0CFFD0020D1
:1034F000287004E0384601F0C9FD7220287020468B
:10350000DFE730B501464A6808682AB9CC686060D0
:1035100028B10025456002E0106000B142608B6870
:1035200000255D6230BDF0B506460F46B468002048
:10353000283460602780207A00F0DF0020720020AD
:103540006072207A283C88B93434A078D749097849
:103550000843D64908702078D549085C617808434B
:1035600014F83419D24A5054012500E000253046A1
:10357000FFF7C7FF2846F0BD2DE9F047044689460E
:1035800015464FF0000AC648007820B10F20287079
:103590002046BDE8F0872078052803D00120287058
:1035A0002046F6E701F06EFD8246606808B101270B
:1035B00000E00027B9F1000F03D0B9F1010F3CD1B1
:1035C00019E08FB9B8A0E06000202070B54800680D
:1035D000606000202081B3480460504601F056FD31
:1035E00000202870002605E0504601F04FFD4920DC
:1035F0002870264628E0D4F8048005E000214046E3
:10360000FFF791FFD8F80080B8F1000FF6D1A6A01F
:10361000E06000202070A3480068606000202081E6
:10362000A0480460504601F031FD012F01D1FFF7A1
:103630001BFC00202870002606E0504601F026FD05
:1036400007202870264600BF00BF3046A1E72DE9BD
:10365000F04105460E46144600279148007820B1F7
:10366000112020700020BDE8F08101F00BFD07461D
:103670002878052806D0384601F008FD0120207082
:103680000020F0E7E86830603068FFF7D2FD804640
:10369000384601F0FBFC002020704046E3E72DE9AE
:1036A000F04105460E46144600277D48007818B1C3
:1036B00012202070BDE8F08101F0E4FC0746287874
:1036C000052805D0384601F0E1FC01202070F1E723
:1036D000EE60384601F0DAFC0020207000BFE9E718
:1036E000F0B51446059E734F3F6897F8307047F069
:1036F0002007DFF8C0C1DCF800C08CF8307000276C
:10370000DFF8B0C1DCF800C08CF83170694F3F6859
:10371000FE62684F3F6879620C828B74654F3F6828
:103720008F6047680F6000274F60C860456805B12B
:10373000696041605F4F3F6897F834205C4FBF5C21
:10374000DFF870C1DCF800C09CF835C027EA0C0730
:10375000DFF85CC10CF802706746BF5C5FB9554F7B
:103760003F6897F836C0514F3F7827EA0C07DFF8DB
:103770003CC18CF80070F0BD2DE9F04F89B00546D2
:103780000F4691469A46129E0020029044480078C7
:1037900028B102203070002009B0BDE8F08F464803
:1037A000007818B10D2030700020F5E72878052842
:1037B00003D0012030700020EEE709F0800BBBF150
:1037C000000F04D009F07F094FF0010801E04FF02D
:1037D000000801F057FC0290B9F1000F4AD0B9F18E
:1037E000010F78D0B9F1020F03D0B9F1030F71D1F5
:1037F00020E0288900EA0704BC420FD1B8F1010F8C
:1038000002D12889A04328812A48006804850298AB
:1038100001F03CFC002030702046BDE74B463A46A4
:1038200004A92846CDF800A0FFF75AFF029801F03E
:103830002DFC78E0288900EA07047CB1B8F1010F7B
:1038400002D12889A04328811A480068048502987B
:1038500001F01CFC0020307020469DE74B463A46A4
:1038600004A92846CDF800A0FFF73AFF029801F01E
:103870000DFC58E0288927EA0004BC421ED1B8F1AB
:10388000010F02D12889204328810A480068048555
:10389000029801F0FBFB0020307020467CE71AE024
:1038A0004D0000203C0000203F000000510000209F
:1038B00052000020600000204E0000204B463A4697
:1038C00004A92846CDF800A0FFF70AFF029801F0EE
:1038D000DDFB28E01FE0288927EA00047CB1B8F16D
:1038E000010F02D1288920432881B148006804854E
:1038F000029801F0CBFB0020307020464CE74B468D
:103900003A4604A92846CDF800A0FFF7E9FE029840
:1039100001F0BCFB07E0029801F0B8FB00246F2027
:103920003070204638E700BFFFF79EFA01F0AAFB8F
:1039300002909F48006890F8310020B39C480068CE
:1039400090F83100039000209949096881F831000E
:1039500004A8FFF7D6FD00209549096881F83000DA
:10396000029801F093FB00240398012805D0022857
:1039700002D10E20307003E000BF0A20307000BF7B
:1039800000BF204608E78A480068048DB8F1010F9F
:103990001ED1B9F1000F0ED0B9F1010F0CD0B9F161
:1039A000020F03D0B9F1030F0AD100E000BF28894C
:1039B000A04328810BE000BF28892043288106E02E
:1039C000029801F063FB6F2030700020E4E600BF36
:1039D000029801F05BFB002030702046DCE670B5F9
:1039E000002501F04FFB054671480068048D28460C
:1039F00001F04CFB204670BD2DE9FC5F0446894672
:103A000092461E46002000902078052804D0012010
:103A100030700020BDE8FC9F01F034FB0090BAF14B
:103A2000000F03D0BAF1010F0AD104E0208920EA87
:103A3000090020810BE0208940EA0900208106E08E
:103A4000009801F023FB712030700020E2E700BFF6
:103A50004FF0000B656855E0A87C40B3012838D0D2
:103A6000022802D0032844D111E02089298A00EAE3
:103A70000107288AB84209D139462846FFF753FD85
:103A80008046B8F1010F01D14FF0010B38E02089D9
:103A9000298A00EA01074FB139462846FFF743FD5E
:103AA0008046B8F1010F01D14FF0010B28E0288AC0
:103AB000218920EA0107288AB84209D139462846D7
:103AC000FFF731FD8046B8F1010F01D14FF0010B36
:103AD00016E0288A218920EA01074FB13946284695
:103AE000FFF721FD8046B8F1010F01D14FF0010B26
:103AF00006E0009801F0CAFA6F203070002089E7D4
:103B000000BF2D68002DA7D1009801F0BFFABBF1CE
:103B1000010F01D1FFF7A8F901F0B4FA0090208954
:103B20000190009801F0B2FA00203070019871E71E
:103B30002DE9F04104460D4600272078052804D0E1
:103B4000012028700020BDE8F08101F09BFA0746B3
:103B50002689384601F09AFA002028703046F2E7AC
:103B60002DE9F04150211348FFF76AF800250EE0D7
:103B7000681C86B20F4800EB051400EB0617002006
:103B800020706760AFF2E020E060681C85B2042D11
:103B9000EED3084800EB0514002020706060AFF2FF
:103BA000F820E060034804490860BDE8F0810000A7
:103BB00060000020C41300203C0000202DE9FC5FC1
:103BC00005460F4691469A460020009001F05AFAA9
:103BD00000906F480468006820B16D480068406834
:103BE0006B490860009801F051FA2CB95A208AF804
:103BF00000000020BDE8FC9FA8462E46781E0190DC
:103C00004FF0000B05E04E44C8F80060B0460BF1E1
:103C1000010B01988345F6D30020C8F80000256009
:103C200065602761E760C4F808908AF800002046C4
:103C3000E0E72DE9F04104460D46002701F022FAA5
:103C40000746206968B16668306860602069401E78
:103C50002061384601F01AFA002028703046BDE88D
:103C6000F081384601F012FA5D2028700020F6E756
:103C70002DE9F04106460C461546002745480078D8
:103C800020B1112028700020BDE8F08101F0FAF980
:103C90000746706920602068FFF7CBFA80463846F7
:103CA00001F0F4F9002028704046EDE72DE9F041DD
:103CB00005460E46144600273648007818B11220F3
:103CC0002070BDE8F08101F0DDF907466E613846ED
:103CD00001F0DCF90020207000BFF2E770B5044667
:103CE0000D46002601F0CEF90646D4E903108842BD
:103CF00004D3304601F0CAF95E2070BD60682860C8
:103D000065602069401C2061304601F0BFF9002049
:103D1000F3E770B505460C46002601F0B3F90646F8
:103D20002868206068686060A868A060E868E06053
:103D300028692061304601F0A9F9D4E90301401A4D
:103D40006061002070BD70B578211348FEF778FFE0
:103D500000240EE004EB44000F4901EBC005601C99
:103D600000EB400001EBC00068600CA06861601CC3
:103D700084B2042CEED304EB4400074901EBC005E8
:103D80000020686005A0686108460149086070BDB0
:103D9000740000204D0000206C2D00203F0000002A
:103DA0002DE9F04106460D464FF000083078022814
:103DB00004D0012028700020BDE8F08101F062F9F4
:103DC00080467468E08A78B12169081D20610F6817
:103DD000E08A401EE082A1682069884201D16068C3
:103DE00020610020287002E01F2028700027404634
:103DF00001F04CF93846DFE72DE9F04106460F4661
:103E00004FF00008F748007810B10020BDE8F081BD
:103E100001F038F98046F4480568006820B1F2489E
:103E200000684068F0490860404601F02FF93DB352
:103E300001F028F98046ED480468C4B100680068C4
:103E4000EA490860404601F021F9666006EB870008
:103E5000A060E6602661A7820020E0820220287030
:103E6000002028816C602846FFF7CBF908E0DE4887
:103E700000686860DC480560404601F007F90025ED
:103E80002846C3E72DE9F0470446894615464FF01A
:103E9000000A2078022804D0012028702046BDE8BE
:103EA000F087D048007818B10F2028702046F6E738
:103EB00001F0E8F88246A07A10B14FF0010801E065
:103EC0004FF00008B9F1000F03D0B9F1010F45D14F
:103ED0001FE0B8F1000F15D16668C4480068306073
:103EE000C248066000202070BF4800686060002063
:103EF0002081BD480460504601F0C8F800202870B9
:103F0000002705E0504601F0C1F8492028702746F7
:103F10002BE005E00023042219462046FFF700F9B4
:103F2000A07A0028F6D16668B04800683060AF48D3
:103F3000066000202070AC4800686060002020818E
:103F4000A9480460504601F0A1F8B8F1010F01D171
:103F5000FEF78AFF00202870002706E0504601F097
:103F600095F807202870274600BF00BF384696E71F
:103F700070B50546002601F085F806466C68606855
:103F8000E060606820610020E082304601F07EF849
:103F9000002070BD2DE9F0470746884615464FF0D2
:103FA00000093878022804D0012028700020BDE8DC
:103FB000F0878C48007818B1022028700020F6E7BE
:103FC0008B48007818B10D2028700020EFE701F031
:103FD00059F881467C68E08A98B12169081D206102
:103FE0000E68E08A401EE082A1682069884201D103
:103FF00060682061484601F049F80020287030468A
:10400000D5E77C48006890F8300040F0040079491A
:10401000096881F8300000207649096881F831008C
:1040200074480068C0F82C803846FFF7B2F848465C
:1040300001F02CF8FEF718FF01F024F881466D48D6
:10404000006890F8310020B101280DD002280AD173
:1040500005E068480068066A002028700DE0002628
:104060000E20287009E000BF394662480068FFF75B
:1040700042F800260A20287000BF00BF00205D49DA
:10408000096881F830005B49096881F831005949B5
:104090000968C861574909680862484600F0F6FF98
:1040A000304684E72DE9F04104460F4615464FF0AF
:1040B00000082078022804D0012028700020BDE8E4
:1040C000F08100F0DFFF8046A07A20B300267FB1A8
:1040D000012F0CD107E00223042200212046FFF724
:1040E0001FF8701CC6B2A07A0028F4D109E000BF06
:1040F0000223042200212046FFF712F8701CC6B2EA
:1041000000BF00BF404600F0C1FFFEF7ADFE0E202D
:1041100028703046D3E7404600F0B8FF00202870F2
:1041200000BFCCE72DE9F04105460E460027287870
:10413000022802D00120BDE8F08100F0A3FF07466D
:10414000A87A60B10023042231462846FEF7E8FF32
:10415000384600F09BFFFEF787FE0020EBE76C6817
:10416000E08AA18A884204DB384600F08FFF1E20D7
:10417000E1E7E168081DE0600E60E08A401CE08233
:10418000D4E90210884201D16068E060384600F04E
:104190007DFF0020CFE72DE9F04105460E460027C0
:1041A0002878022802D00120BDE8F08100F06AFFE3
:1041B0000746A87A60B10023042231462846FEF75C
:1041C000AFFF384600F062FFFEF74EFE0020EBE73F
:1041D0006C68E08AA18A88420EDB384600F056FF00
:1041E0001E20E1E74D00002038000020780000206C
:1041F0004E0000206000002061682069884201D1E3
:10420000A06820612069001F206120690660E08AA3
:10421000401CE082384600F039FF0020C4E72DE959
:10422000F04105460F4616464FF000082878022850
:1042300002D00120BDE8F08100F024FF8046A87A7A
:10424000E8B106F0010050B105E000230422394630
:104250002846FEF765FFA87A0028F6D105E000237E
:10426000042239462846FEF75BFF404600F00EFF69
:1042700006F0040008B9FEF7F7FD0020DAE76C68E5
:10428000E08AA18A884204DB404600F0FFFE1E203F
:10429000D0E706F0020058B161682069884201D178
:1042A000A06820612069001F20612069076009E083
:1042B000E168081DE0600F60D4E90210884201D176
:1042C0006068E060E08A401CE082404600F0DEFE6C
:1042D0000020AFE72DE9F04705460C464FF0000AF5
:1042E0002878022802D00120BDE8F08700F0CAFE3D
:1042F0008246A87A207405F10B0804F1080900270A
:1043000005E018F8010B09F8010B781CC7B2082F5B
:10431000F7D36E68F08A18B130690068206001E058
:1043200000202060F08AA080B08AE080504600F033
:10433000ADFE0020D8E72DE9F04160211048FEF7DE
:104340007FFC00240DE0601C86B204EB44000C49A5
:1043500001EBC00506EB460001EBC0072F60601CB7
:1043600084B2032CEFD304EB4400054901EBC005F4
:1043700000202860084603490860BDE8F08100007D
:10438000E42D00207800002070B504460026207837
:10439000032801D0002070BD00F074FE0646258978
:1043A00015B12089401E2081304600F06FFE28465E
:1043B000F1E770B505460026D248007808B1002024
:1043C00070BD00F05FFE0646CF480468006820B16B
:1043D000CD4800684068CC490860304600F056FE81
:1043E0003CB1032020702581002060602046FEF74C
:1043F00008FF2046E4E72DE9F047044688461546C5
:104400004FF000092078032804D0012028702046AE
:10441000BDE8F087BB48007818B10F20287020460F
:10442000F6E700F02FFE8146A07A08B1012700E0F0
:104430000027B8F1000F03D0B8F1010F35D117E014
:104440007FB900202070B0480068606000202081A3
:10445000AD480460484600F019FE00202870002690
:1044600005E0484600F012FE49202870264623E069
:1044700005E00023012219462046FEF751FEA07AEE
:104480000028F6D12070A0480068606000202081DC
:104490009D480460484600F0F9FD012F01D1FEF768
:1044A000E3FC00202870002606E0484600F0EEFD00
:1044B00007202870264600BF00BF3046A8E72DE938
:1044C000F04105460E46144600272878032803D0FD
:1044D00001202070BDE8F0818A48007810B10220E8
:1044E0002070F7E78948007810B10D202070F1E7BF
:1044F00000F0C8FD0746288940B12889401E288160
:10450000384600F0C3FD00202070E3E780480068D3
:1045100090F8300040F001007D49096881F83000D2
:1045200000207B49096881F8310079480068C6623B
:104530002846FEF72EFE384600F0A8FDFEF794FC54
:1045400000F0A0FD07467248006890F8310020B1E5
:10455000012809D0022806D102E0002020700BE0DB
:104560000E20207008E000BF294669480068FEF769
:10457000C2FD0A20207000BF00BF00206449096806
:1045800081F830006249096881F8310060490968A2
:10459000C861384600F07AFD00BF9BE72DE9F04185
:1045A00004460F4615464FF000082078032804D033
:1045B000012028700020BDE8F08100F063FD8046F6
:1045C000A07A20B300267FB1012F0CD107E002238F
:1045D000012200212046FEF7A3FD701CC6B2A07A7E
:1045E0000028F4D109E000BF022301220021204667
:1045F000FEF796FD701CC6B200BF00BF404600F03B
:1046000045FDFEF731FC0E2028703046D3E74046CA
:1046100000F03CFD0020287000BFCCE770B50446D8
:1046200000252078032801D0012070BD00F02AFD6C
:104630000546A07A60B10023012219462046FEF704
:104640006FFD284600F022FDFEF70EFC0020ECE78F
:1046500020894FF6FF71884207D22089401C2081B3
:10466000284600F013FD0020DFE7284600F00EFD8D
:104670003320DAE72DE9F04704460D464FF00009F4
:104680002078032802D00120BDE8F08700F0FAFC72
:104690008146A07AA87204F10B0705F102080026F2
:1046A00005E017F8010B08F8010B701CC6B2082EC4
:1046B000F7D320892880484600F0E8FC0020E3E793
:1046C0002DE9F04104460E461546002720780328C0
:1046D00003D001202870BDE8F08100F0D3FC07462C
:1046E00000202870208908B1268105E0A07A08B949
:1046F000268101E049202870384600F0C7FC00BF41
:10470000E9E700004D000020380000204E000020A6
:10471000600000202DE9FF5F814688460020009060
:1047200000F0B0FC0090F94850F8280030B1009833
:1047300000F0ACFC282004B0BDE8F09FB9F1FF0FF9
:1047400003D1F348006890F83290F04850F82940BF
:1047500024B9009800F09AFC2920ECE7012C04D140
:10476000009800F093FC4320E5E74FEAE80708F0E3
:10477000070003900120B84000F0FF0A01210398D0
:10478000814001F0FF0B0020E04941F82900084674
:1047900040F8284014F8346FA07802906078343CD8
:1047A0000190DC48815D01980140D1B1D948805D1C
:1047B00001998843D74988550846805D28B9D6486D
:1047C000007802998843D4490870D348007840EAB9
:1047D0000A00D1490870CF48C05D40EA0B00CD49BE
:1047E000C855E569D5B105F10B00805D0199884395
:1047F00005F10B0188550846805D18B9A87A029921
:104800008843A872A87A40EA0A00A87205F10B0052
:10481000C05D40EA0B0005F10B01C85584F83280F9
:1048200084F83470039884F8330084F836A084F850
:1048300035B0009800F02AFCB8480078012801D172
:10484000FEF712FB002076E72DE9FE4F06460F46E5
:1048500090461C464FF0000900F014FC8146B04819
:10486000007828B1484600F011FC3C20BDE8FE8FDE
:10487000A64850F8240060BB0120A44941F8240058
:10488000484600F003FC002342463946304600F01B
:1048900058FC824600200090019003460246514693
:1048A00002902046FEF7CFFC054635B99B480078BC
:1048B00001280CD1FEF7D8FA09E000F0E3FB8146AD
:1048C0000020924941F82400484600F0DFFB2846CA
:1048D000CCE7484600F0DAFB2820C7E702F00103E6
:1048E00043B102F002032BB102E0491E002308C0CD
:1048F0000029FAD170472DE9F04F85B081468A46EC
:1049000093461C46DDE90F78129D0020039000F0CD
:10491000B9FB03908248007830B1039800F0B6FBF1
:104920003C2005B0BDE8F08F784850F8240088BBE3
:104930000120764941F82400039800F0A7FB2A469D
:1049400041463846FFF7CAFF2B465A46514648466D
:1049500000F0F7FB04901198CDE9008002953A46EB
:1049600020460E9B0499FEF76EFC064636B96B484E
:10497000007801280CD1FEF777FA09E000F082FBFD
:1049800003900020614941F82400039800F07EFB69
:104990003046C6E7FFE7039800F078FB2820C0E721
:1049A0002DE9F041054600275D48007810B1402010
:1049B000BDE8F0813F2D01D13E20F9E700F062FB18
:1049C0000746FF2D03D15248006890F832504F48F7
:1049D00050F8254024B9384600F058FB4320E7E75B
:1049E000012C04D1384600F051FB3D20E0E714F8DB
:1049F000340F4849085C617888432178454A50540F
:104A000014F834091146085C30B994F8361042485D
:104A10000078884340490870E06918B12046E16990
:104A2000FEF769FB666A16B13046FEF76AFD0020A4
:104A3000E06284F8300084F831003A480078FF28BA
:104A400004D238480078401C36490870384600F0D7
:104A50001DFBFEF74FFB00F015FB074631480078C1
:104A600020B130480078401E2E490870204600F0E2
:104A700065FB2D480078401E2B4908700020234913
:104A800041F82500A06930B9002061698861274993
:104A90006069086005E0D4E905014861D4E90510C2
:104AA00088612348006860612148046021A0E064B7
:104AB000384600F0EBFA19480078012801D1FEF7DA
:104AC000D3F9002074E72DE9F041044600273F2C7C
:104AD00002D13E20BDE8F081FF2C0BD100F0D2FACC
:104AE00007460B48006890F83760384600F0CEFA69
:104AF0003046EFE700F0C6FA0746044850F8245065
:104B0000D5B9384600F0C2FA4320E3E71418002074
:104B10006000002052000020510000205A000020B8
:104B20004D0000204E0000205B0000206C000020A3
:104B3000640000203F000000012D04D1384600F041
:104B4000A5FA3D20C6E73F2085F83700384600F03B
:104B50009DFA0020BEE72DE9F04706460F461446B1
:104B60004FF00008D548007820B1112020700020B7
:104B7000BDE8F08700F086FA8046FF2E03D1D048CA
:104B8000006890F83260CF4850F8265035B940465A
:104B900000F07CFA432020700020E9E7012D06D1C7
:104BA000404600F073FA432020700020E0E7E86CF4
:104BB00038603868FEF73DFB8146404600F066FAF3
:104BC000002020704846D3E72DE9F04106460F4605
:104BD00014464FF00008B948007818B11220207030
:104BE000BDE8F08100F04EFA8046FF2E03D1B448B4
:104BF000006890F83260B34850F826502DB940460E
:104C000000F044FA43202070EAE7012D05D1404628
:104C100000F03CFA43202070E2E7EF64404600F0E9
:104C200035FA0020207000BFDAE770B5054600268F
:104C300000F028FA0646A34850F8254024B930462B
:104C400000F024FA462070BD012C04D1304600F05B
:104C50001DFA4320F7E794F8300000F0080060B335
:104C600014F8300F00F0F700207014F83009F8B98C
:104C7000E06AC8B93434A078934909780843924966
:104C8000087020789149085C6178084314F8341959
:104C90008E4A5054304600F0F9F98D4800780128CA
:104CA00009D1FEF7E1F806E0304600F0EFF902E046
:104CB000304600F0EBF90020C5E7304600F0E6F999
:104CC0004420C0E72DE9F04707460D464FF0000AA3
:104CD00000202860686000F0D5F98246FF2F03D1DC
:104CE0007748006890F83270764850F827402CB921
:104CF000504600F0CBF94320BDE8F087012C04D1E9
:104D0000504600F0C3F94320F6E7207C00F0010094
:104D100020B9504600F0BAF94520EDE70026D4F856
:104D20000C90D4F80880504600F0B0F900E0761CF2
:104D300058F8041B0029FAD02E60A9EB0600686021
:104D40000020D9E72DE9F04105464FF0000800F0BA
:104D500099F98046FF2D05D15948006890F83250E6
:104D6000012608E05648006890F83200A84201D1B8
:104D7000012600E00026534850F825402CB9404653
:104D800000F084F94820BDE8F081012C04D14046B0
:104D900000F07CF94320F6E794F834704B48C05D8E
:104DA00094F8351088434949C8550846C05D30B964
:104DB00094F836104448007888434349087094F8C2
:104DC000300040F0080084F83000404600F05EF902
:104DD000012E01D1FEF748F80020D4E72DE9F0417B
:104DE00005460E46002700F04DF90746FF2D03D17A
:104DF0003348006890F83250324850F825402CB9BA
:104E0000384600F043F92920BDE8F081012C04D197
:104E1000384600F03BF94320F6E75422214630465D
:104E2000FEF7FDF9384600F031F90020ECE72DE9F6
:104E3000F04704460E4617464FF0000900F022F9ED
:104E40008146FF2C02D11E48056802E01D4850F83B
:104E5000245005F1500050F82680484600F016F91D
:104E6000002038704046BDE8F0872DE9F047044641
:104E70000E46174698464FF0000900F003F98146A8
:104E8000FF2C02D10E48056802E00E4850F824506D
:104E900005F1500040F82670484600F0F7F8002071
:104EA00088F80000BDE8F08710B50548006800F0FC
:104EB00042F9FF20FFF774FD10BD00004D000020F7
:104EC0006000002014180020510000205200002033
:104ED0005A00002070B5054600266348007800B1EE
:104EE00070BD6248007800B1FAE71DB300F0CAF85F
:104EF00006465F48006890F834405E48005D5C49B3
:104F0000096891F8351088435A4908550846005DEC
:104F100040B95748006890F83610574800788843E1
:104F20005549087052480068C562304600F0AEF836
:104F3000FDF79AFF00BFD3E72DE9F04105460E4685
:104F400017461C464848007810B15520BDE8F0814E
:104F50004648007808B13220F8E74FF47A70604391
:104F60004FF47A71B0FBF1F14FF461606843C6EB26
:104F7000061200EB8200384400EB4002C2EBC01086
:104F800001EBC0084046FFF7A5FF0020DEE770B543
:104F9000054600263F2D01D32A2070BD00F072F88F
:104FA0000646364850F8254024B9304600F06EF8E1
:104FB0004320F2E7012C04D1304600F067F843208B
:104FC000EBE7E06A20B9304600F060F85020E4E7F3
:104FD0000020E06294F8300000F0370040B114F88F
:104FE000300F20F03700207001206070303C02E06C
:104FF000002084F8310094F8300000F00800A8B9CF
:105000003434A0781C49097808431B49087020787B
:105010001849085C6178084314F83419154A50544B
:10502000304600F033F8FDF71FFF02E0304600F095
:105030002DF80020B1E770B5002500F023F80546F3
:105040000F480468284600F021F8204670BD70B56E
:105050000446002500F016F8054609480460284675
:1050600000F014F870BD00004D0000204E0000203C
:105070006000002052000020510000201418002081
:105080007C000020EFF3108072B6704780F3108828
:10509000704720484FF0FF010170002080F309881D
:1050A0001D48012101701D484FF08051016062B61A
:1050B000FEE71A484FF080510160704717484FF0E3
:1050C00080510160704772B6EFF3098040B14038FB
:1050D00080EC108A203880E8F00F114909680860D8
:1050E00000B5104880475DF804EB0F480F490A7877
:1050F00002700B480E490A680260106890E8F00FD1
:10510000203090EC108A403080F309884EF0040E75
:1051100062B6704722ED00E05A00002004ED00E086
:1051200060000020255300084F00002050000020A0
:10513000680000207047704770477047704770479D
:10514000704770B5044610460026051F28462E609D
:10515000051F28462E604FF01536051F28462E6085
:105160004FF01436051F28462E604FF01336051FEA
:1051700028462E604FF01236051F28462E604FF04D
:105180001136051F28462E604FF01036051F2846A1
:105190002E604FF00936051F28462E604FF0083666
:1051A000051F28462E604FF00736051F28462E6043
:1051B0004FF00636051F28462E604FF00536051FB6
:1051C00028462E604FF00436051F28462E604FF00B
:1051D0000336051F28462E604FF00236051F28466D
:1051E0002E607610051F28462E600026051F2846D3
:1051F0002E604FF080750560051F28462C60B61E96
:10520000051F28462E604FF01236051F28462E60D7
:105210004FF00336051F28462E604FF00236051F5B
:1052200028462E607610051F28462E60051F28464A
:1052300029604FF03136051F28462E604FF030367A
:10524000051F28462E604FF02936051F28462E6080
:105250004FF02836051F28462E604FF02736051FD1
:1052600028462E604FF02636051F28462E604FF048
:105270002536051F28462E604FF02436051F284688
:105280002E604FF02336051F28462E604FF0223641
:10529000051F28462E604FF02136051F28462E6038
:1052A0004FF02036051F28462E604FF01936051F97
:1052B00028462E604FF01836051F28462E604FF006
:1052C0001736051F28462E604FF01636051F284654
:1052D0002E604FF01136051F28462E604FF0103615
:1052E000051F28462E604FF00936051F28462E6000
:1052F0004FF00836051F28462E604FF00736051F71
:1053000028462E604FF00636051F28462E604FF0C7
:105310000536051F28462E604FF00436051F284627
:105320002E6070BD70477047704710B51F48006809
:10533000401C1E490860FFF7A5FE04461C48007883
:10534000401C1B4908702046FFF7A0FEFDF766FED3
:10535000FDF739FD10BD7FB56846FCF7D0FE4FF470
:105360007A720198B0FBF2F1481EB0F1807F00D351
:105370001BE0481E4FF0E022506150170F2200281A
:1053800004DB13071C0E0B4B1C5406E013071D0E09
:10539000094B00F00F04241F1D5500BF00204FF0E3
:1053A000E02290610720106100BF7FBD80000020D7
:1053B0004D00002000E400E018ED00E02DE9FE4F74
:1053C000804681EA0300C00F0C46009021F00041A6
:1053D00023F00045B8EB0200A94105D24046214622
:1053E00090461C460B46024623F00040104347D02F
:1053F000270DC7F30A00C3F30A510290401A019027
:1054000040286BDAC3F3130040F4801B00989246E7
:1054100020B10023D2EB030A63EB0B0B0198594632
:10542000C0F14002504600F064F906460D46504671
:105430005946019A00F06CF910EB08006141002414
:1054400087EA115284EAE7731A4340D0009A62B3A4
:10545000019A012A4FEA075215DC001B61EB020199
:105460004FF0004202EA0752CDE90042001C41F52C
:10547000801132462B4600F06CF903B0BDE8F08F86
:1054800040462146F9E7001B61EB0201001C41F593
:10549000801300185B412018A2F5001747EB0301A9
:1054A00040EAD570B6196D4111E06D084FEA360635
:1054B00045EAC0754FEA0752001B61EB0201001C70
:1054C00041F5801149084FEA300000195141324638
:1054D0002B4603B0BDE8F04F00F02CB90098012234
:1054E00040000023D0EB020263EBE07300982146FA
:1054F0004FEAE074B8EB000061EB0401E9E783F0E8
:1055000000435BE781F0004158E72DE9FE4F81EA57
:10551000030404F0004421F0004100944FF0000B1C
:1055200023F0004350EA01045ED052EA03045BD04A
:10553000C3F30A54C1F30A552C44A4F2F334019482
:10554000A0FB0254C1F3130141F48011C3F3130310
:1055500043F4801301FB024400FB034E840A970AC4
:1055600044EA815447EA8357A4FB076802958D0AF1
:1055700005FB07854FEA932C04FB0C542705029D7D
:105580004FEA065847EA1637B5EB08056EEB070CED
:10559000870E920E47EA811742EA8312A7FB0201A7
:1055A000B6EB0B0164EB00042B0D43EA0C335E18E1
:1055B00044EB1C50DA465146E7FB0201C5F31304E5
:1055C0004FEA0B3343EA14534FEA0432019C43EA97
:1055D0000603A4F10C040294009CCDE900B400F091
:1055E000B8F803B0BDE8F08F00200146F9E72DE9D7
:1055F000F04D81EA030404F0004B21F0004514460D
:105600004FF0000A23F0004150EA050220D054EA8E
:1056100001021DD0C5F30A570246C5F31303C1F3B7
:105620001300C1F30A5640F4801543F48013A7EB2E
:105630000608101BD64608F2FD3873EB050002D3AE
:1056400008F1010801E092185B41B8F1000F03DA9C
:1056500000200146BDE8F08D00204FF48011064681
:1056600084460EE0171B73EB050705D3121B63EB93
:10567000050306434CEA010C49084FEA3000921832
:105680005B4150EA0107EDD152EA030012D082EAF1
:10569000040083EA0501084305D0101BAB4106D284
:1056A0000122002306E000224FF0004302E06FF0E9
:1056B000010253101AEB06004CEB085110EB0A00E4
:1056C00041EB0B01BDE8F04D00F034B800F00042B2
:1056D00030F000400AD0C10D01F56071C0F3160032
:1056E00042EA0151C20840071143704700200146B9
:1056F0007047202A04DB203A00FA02F100207047AC
:105700009140C2F1200320FA03F3194390407047FF
:10571000202A06DBCB17203A41FA02F043EAE07375
:1057200006E041FA02F3D040C2F120029140084362
:105730001946704710B5141E73F1000408DA401CB6
:1057400041F1000192185B411A4301D120F00100A0
:1057500010BD2DE9F04D92469B4611B1B1FA81F290
:1057600002E0B0FA80F220329046FFF7C2FF044612
:105770000F4640EA0A0041EA0B0153465A460843E5
:1057800013D0114653EA010019D0C8F14002504627
:1057900000F040F805460E46504659464246FFF78F
:1057A000A8FF084305D0012004E020463946BDE8A3
:1057B000F08D0020054346EAE0762C4337430A98F3
:1057C0006305E40AA0EB08000022FD0A44EA4754FE
:1057D0000A3002D500200146E9E7010510196941A8
:1057E000DDE9084500196941BDE8F04DA2E7000078
:1057F000064C074D06E0E06840F0010394E807001E
:1058000098471034AC42F6D3FAF7C2FC545900085A
:1058100074590008202A04DB203A21FA02F0002102
:10582000704721FA02F3D040C2F1200291400843B0
:105830001946704702E008C8121F08C1002AFAD1B1
:1058400070477047002001E001C1121F002AFBD100
:105850007047000001000200010003000100020087
:105860000100040001000200010003000100020029
:105870000100050001000200010003000100020018
:105880000100040001000200010003000100020009
:1058900001000600010002000100030001000200F7
:1058A00001000400010002000100030001000200E9
:1058B00001000500010002000100030001000200D8
:1058C00001000400010002000100030001000200C9
:1058D00001000700010002000100030001000200B6
:1058E00001000400010002000100030001000200A9
:1058F0000100050001000200010003000100020098
:105900000100040001000200010003000100020088
:105910000100060001000200010003000100020076
:105920000100040001000200010003000100020068
:105930000100050001000200010003000100020057
:105940000100040001000200010003000100020048
:1059500001000000745900080000002084000000CD
:1059600034580008F859000884000020C4310000B1
:105970004458000800000000000000000000000083
:1059800000000000000102030401020304060708EE
:1059900009000000007A030A000000000000000077
:1059A00001020304060708090000000000000000CF
:1059B00000000000000000000000000000000000E7
:1059C00000000000000000000000000000000000D7
:1059D00000000000000000000000000000000000C7
:1059E00000000000000000000000000000000000B7
:0859F0000000000000000000AF
:040000050800018965
:00000001FF
